:020000040800F2
:10000000005000201540000841110008431100086D
:1000100045110008471100084911000800000000C0
:10002000000000000000000000000000C13D0008CA
:100030004B11000800000000613E0008A53E0008CA
:100040005D4000085D4000085D4000085D4000081C
:100050005D4000085D4000085D4000085D4000080C
:100060005D4000085D4000085D4000085D400008FC
:100070005D4000085D4000085D4000085D400008EC
:100080005D4000085D4000085D4000085D400008DC
:100090005D4000085D4000085D4000085D400008CC
:1000A0005D4000084D1100085D4000085D400008FB
:1000B0005D4000085D4000085D4000085D400008AC
:1000C0005D4000085D4000085D4000085D4000089C
:1000D0005D4000085D4000085D4000085D110008BB
:1000E0005D4000085D4000085D4000080000000021
:1000F0000000000000000000000000000000000000
:0C01000000000000000000005FF808F1A3
:1001100010B5054C237833B9044B13B10448AFF341
:1001200000800123237010BDEC01002000000000BE
:10013000A07B000808B5034B1BB103490348AFF38C
:10014000008008BD00000000F0010020A07B000836
:1001500010F8012B11F8013B012A28BF9A42F7D071
:10016000D01A7047034613F8012B002AFBD1181A46
:100170000138704781F0004102E000BF83F0004386
:1001800030B54FEA41044FEA430594EA050F08BF32
:1001900090EA020F1FBF54EA000C55EA020C7FEAF6
:1001A000645C7FEA655C00F0E2804FEA5454D4EB73
:1001B0005555B8BF6D420CDD2C4480EA020281EA3D
:1001C000030382EA000083EA010180EA020281EA75
:1001D0000303362D88BF30BD11F0004F4FEA0131C7
:1001E0004FF4801C4CEA113102D0404261EB4101D6
:1001F00013F0004F4FEA03334CEA133302D052425C
:1002000063EB430394EA050F00F0A780A4F1010417
:10021000D5F1200E0DDB02FA0EFC22FA05F2801851
:1002200041F1000103FA0EF2801843FA05F3594137
:100230000EE0A5F120050EF1200E012A03FA0EFCB6
:1002400028BF4CF0020C43FA05F3C01851EBE371E0
:1002500001F0004507D54FF0000EDCF1000C7EEBFD
:1002600000006EEB0101B1F5801F1BD3B1F5001F3B
:100270000CD349085FEA30004FEA3C0C04F101045A
:100280004FEA445212F5800F80F09A80BCF1004F83
:1002900008BF5FEA500C50F1000041EB045141EA05
:1002A000050130BD5FEA4C0C404141EB0101013CCE
:1002B00028BFB1F5801FE9D291F0000F04BF0146BD
:1002C0000020B1FA81F308BF2033A3F10B03B3F18F
:1002D00020020CDA0C3208DD02F1140CC2F10C021F
:1002E00001FA0CF021FA02F10CE002F11402D8BF7D
:1002F000C2F1200C01FA02F120FA0CFCDCBF41EA49
:100300000C019040E41AA2BF01EB0451294330BD17
:100310006FEA04041F3C1CDA0C340EDC04F11404F4
:10032000C4F1200220FA04F001FA02F340EA0300CB
:1003300021FA04F345EA030130BDC4F10C04C4F111
:10034000200220FA02F001FA04F340EA03002946F1
:1003500030BD21FA04F0294630BD94F0000F83F43B
:10036000801306BF81F480110134013D4EE77FEA1E
:10037000645C18BF7FEA655C29D094EA050F08BF6A
:1003800090EA020F05D054EA000C04BF194610464B
:1003900030BD91EA030F1EBF0021002030BD5FEA8F
:1003A000545C05D14000494128BF41F0004130BDB7
:1003B00014F580043CBF01F5801130BD01F000450B
:1003C00045F0FE4141F470014FF0000030BD7FEA7E
:1003D000645C1ABF194610467FEA655C1CBF0B4679
:1003E000024650EA013406BF52EA033591EA030F90
:1003F00041F4002130BD00BF90F0000F04BF002188
:10040000704730B54FF4806404F132044FF00005BA
:100410004FF0000150E700BF90F0000F04BF002133
:10042000704730B54FF4806404F1320410F0004599
:1004300048BF40424FF000013EE700BF42004FEA94
:10044000E2014FEA31014FEA02701FBF12F07F4311
:1004500093F07F4F81F06051704732F07F4208BFC8
:10046000704793F07F4F04BF41F40021704730B5CF
:100470004FF4607401F0004521F000411CE700BF1B
:1004800050EA010208BF704730B54FF000050AE09E
:1004900050EA010208BF704730B511F0004502D59F
:1004A000404261EB41014FF4806404F132045FEAA1
:1004B000915C3FF4D8AE4FF003025FEADC0C18BF4A
:1004C00003325FEADC0C18BF033202EBDC02C2F13C
:1004D000200300FA03FC20FA02F001FA03FE40EACE
:1004E0000E0021FA02F11444BDE600BF70B54FF0D2
:1004F000FF0C4CF4E06C1CEA11541DBF1CEA1355B0
:1005000094EA0C0F95EA0C0F00F0DEF82C4481EA17
:10051000030621EA4C5123EA4C5350EA013518BF37
:1005200052EA033541F4801143F4801338D0A0FB24
:1005300002CE4FF00005E1FB02E506F00042E0FBD1
:1005400003E54FF00006E1FB03569CF0000F18BFD7
:100550004EF0010EA4F1FF04B6F5007F64F540747F
:1005600004D25FEA4E0E6D4146EB060642EAC62112
:1005700041EA55514FEAC52040EA5E504FEACE2E7F
:10058000B4F1FD0C88BFBCF5E06F1ED8BEF1004F82
:1005900008BF5FEA500E50F1000041EB045170BDFE
:1005A00006F0004646EA010140EA020081EA030142
:1005B000B4EB5C04C2BFD4EB0C0541EA045170BD3E
:1005C00041F480114FF0000E013C00F3AB8014F1B8
:1005D000360FDEBF002001F0004170BDC4F1000401
:1005E000203C35DA0C341BDC04F11404C4F1200582
:1005F00000FA05F320FA04F001FA05F240EA0200DD
:1006000001F0004221F0004110EBD37021FA04F612
:1006100042EB06015EEA430E08BF20EAD37070BDCC
:10062000C4F10C04C4F1200500FA04F320FA05F02B
:1006300001FA04F240EA020001F0004110EBD3702D
:1006400041F100015EEA430E08BF20EAD37070BD9D
:10065000C4F1200500FA05F24EEA020E20FA04F376
:1006600001FA05F243EA020321FA04F001F0004125
:1006700021FA04F220EA020000EBD3705EEA430E96
:1006800008BF20EAD37070BD94F0000F0FD101F0C5
:100690000046400041EB010111F4801F08BF013CFE
:1006A000F7D041EA060195F0000F18BF704703F03C
:1006B0000046520043EB030313F4801F08BF013DC3
:1006C000F7D043EA0603704794EA0C0F0CEA13557F
:1006D00018BF95EA0C0F0CD050EA410618BF52EA39
:1006E0004306D1D181EA030101F000414FF000003F
:1006F00070BD50EA410606BF1046194652EA43064D
:1007000019D094EA0C0F02D150EA013613D195EAC0
:100710000C0F05D152EA03361CBF104619460AD108
:1007200081EA030101F0004141F0FE4141F4700112
:100730004FF0000070BD41F0FE4141F4780170BD02
:1007400070B54FF0FF0C4CF4E06C1CEA11541DBF67
:100750001CEA135594EA0C0F95EA0C0F00F0A7F869
:10076000A4EB050481EA030E52EA03354FEA013196
:1007700000F088804FEA03334FF0805545EA1313A9
:1007800043EA12634FEA022245EA111545EA106571
:100790004FEA00260EF000419D4208BF964244F108
:1007A000FD0404F5407402D25B084FEA3202B61A27
:1007B00065EB03055B084FEA32024FF480104FF4FB
:1007C000002CB6EB020E75EB030E22BFB61A75466F
:1007D00040EA0C005B084FEA3202B6EB020E75EB02
:1007E000030E22BFB61A754640EA5C005B084FEA6A
:1007F0003202B6EB020E75EB030E22BFB61A754637
:1008000040EA9C005B084FEA3202B6EB020E75EB41
:10081000030E22BFB61A754640EADC0055EA060E02
:1008200018D04FEA051545EA16754FEA06164FEA45
:10083000C30343EA52734FEAC2025FEA1C1CC0D1F1
:1008400011F4801F0BD141EA00014FF000004FF07E
:10085000004CB6E711F4801F04BF01430020B4F13F
:10086000FD0C88BFBCF5E06F3FF6AFAEB5EB030CF7
:1008700004BFB6EB020C5FEA500C50F1000041EBF4
:10088000045170BD0EF0004E4EEA113114EB5C04C1
:10089000C2BFD4EB0C0541EA045170BD41F4801194
:1008A0004FF0000E013C90E645EA060E8DE60CEA9C
:1008B000135594EA0C0F08BF95EA0C0F3FF43BAFB9
:1008C00094EA0C0F0AD150EA01347FF434AF95EA70
:1008D0000C0F7FF425AF104619462CE795EA0C0F54
:1008E00006D152EA03353FF4FDAE1046194622E721
:1008F00050EA410618BF52EA43067FF4C5AE50EAFB
:1009000041047FF40DAF52EA43057FF4EBAE12E7EA
:100910004FF0FF3C06E000BF4FF0010C02E000BFCB
:100920004FF0010C4DF804CD4FEA410C7FEA6C5CAE
:100930004FEA430C18BF7FEA6C5C1BD001B050EA51
:10094000410C0CBF52EA430C91EA030F02BF90EA3C
:10095000020F0020704710F1000F91EA030F58BFFB
:10096000994208BF90422CBFD8176FEAE37040F05D
:10097000010070474FEA410C7FEA6C5C02D150EAFB
:10098000013C07D14FEA430C7FEA6C5CD6D152EAB6
:10099000033CD3D05DF8040B704700BF844610467B
:1009A00062468C461946634600E000BF01B5FFF77A
:1009B000B7FF002848BF10F1000F01BD4DF808ED4A
:1009C000FFF7F4FF0CBF012000205DF808FB00BF1B
:1009D0004DF808EDFFF7EAFF34BF012000205DF875
:1009E00008FB00BF4DF808EDFFF7E0FF94BF0120C2
:1009F00000205DF808FB00BF4DF808EDFFF7CEFFC3
:100A000094BF012000205DF808FB00BF4DF808ED01
:100A1000FFF7C4FF34BF012000205DF808FB00BFD2
:100A20004FEA410212F5001215D211D56FF4787316
:100A3000B3EB625212D94FEAC12343F0004343EAB9
:100A4000505311F0004F23FA02F018BF4042704794
:100A50004FF00000704750EA013005D111F000401E
:100A600008BF6FF0004070474FF00000704700BFB4
:100A70004A0011D212F5001211D20DD56FF478731D
:100A8000B3EB62520ED44FEAC12343F0004343EA72
:100A9000505323FA02F070474FF00000704750EABD
:100AA000013002D14FF0FF3070474FF00000704727
:100AB0004FEA4102B2F1E04324BFB3F5001CDCF180
:100AC000FE5C0DD901F0004C4FEAC0024CEA5070B8
:100AD000B2F1004F40EB830008BF20F001007047E7
:100AE00011F0804F21D113F13872BCBF01F00040EA
:100AF000704741F480114FEA5252C2F11802C2F11C
:100B0000200C10FA0CF320FA02F018BF40F001009C
:100B10004FEAC1234FEAD32303FA0CFC40EA0C004E
:100B200023FA02F34FEA4303CCE77FEA625307D18B
:100B300050EA01331EBF4FF0FE4040F440007047C2
:100B400001F0004040F0FE4040F40000704700BF5C
:100B500038B505460C460022002328462146FFF7FB
:100B600037FF28B928462146BDE8384000F00AB8CA
:100B7000284604F1004100F005F8404261EB4101D4
:100B800038BD00BFD0B500220B4B06460F46FFF71D
:100B9000ADFCFFF76DFF0446FFF72EFC0022074B6C
:100BA000FFF7A4FC02460B4630463946FFF7E6FA4B
:100BB000FFF75EFF2146D0BD0000F03D0000F04190
:100BC00084B00F4B9A6942F020029A619A6902F050
:100BD00020020192019A9A6942F008029A619A6988
:100BE00002F008020292029A9A6942F004029A61A3
:100BF0009B6903F004030393039B04B0704700BF99
:100C00000010024010B50446FFF7ACFA642382B22C
:100C10002146024801F0F9FA10BD00BF98020020F9
:100C200008B50648FFF7EEFF054B186802F044FFD1
:100C30004FF47A7002F0E6FEF3E700BF547C000840
:100C4000240200200000000008B517E04FF0FF313B
:100C5000234B186802F001FF60B917E04FF08043A2
:100C60007D225A631F4B1B68012B22D01E4B186834
:100C700002F022FF4FF4FA7002F0C4FE4FF0FF3191
:100C80001A4B186802F0E9FE0028DFD11848FFF778
:100C9000B9FF144B1B68002BE4D11648FFF7B2FFD5
:100CA000154B1B681E2BD9DD4FF0804319225A6368
:100CB000D8E71248FFF7A6FF114B18682D30FFF751
:100CC000ABFB05A3D3E90023FFF73AFDFFF7A8FE2E
:100CD0004FF080435863C9E7CDCCCCCCCCCCFC3FA3
:100CE0000802002010020020280200202402002018
:100CF000647C0008707C000804000020887C0008E8
:100D0000140200200000000008B54FF0FF31204B16
:100D1000186802F0A2FE1F48FFF774FF1E4C1F4B1D
:100D20001A681F49204603F0D7F91E4D1E4B1A685A
:100D30001E49284603F0D0F94FF08043586BFFF767
:100D40005BFB11A3D3E90023FFF7D0FB0022184B74
:100D5000FFF714FAFFF764FE02461649164803F03F
:100D6000BBF92046FFF74EFF144C2046FFF74AFF21
:100D70002846FFF747FF2046FFF744FF4FF4FA707D
:100D800002F040FEC1E700BFCDCCCCCCCCCCFC3FC8
:100D900028020020A07C000850020020040000204F
:100DA000B07C00083C02002000000020BC7C000851
:100DB00000804640C87C0008E8020020847C0008CF
:100DC00000B583B042E02D48FFF71CFF2C4D2A46AA
:100DD0002C492D4803F0A0F92C4C2A682C492046B8
:100DE00003F07AF92B48FFF70DFF2046FFF70AFFC3
:100DF0003CE02948FFF706FF284B6D4693E80300C7
:100E000085E80300264C2346264A27491E4803F05E
:100E100083F9204603F023F9FFF74AFE234B1860BD
:100E20002146284603F0E7F92148FFF7EBFE20466C
:100E3000FFF7E8FE32220021134803F045F91D4B6D
:100E4000186802F039FE012002F0DCFD4FF0FF319E
:100E5000194B186802F001FE1848FFF7D3FE042270
:100E60001749094803F0D6F90028ACD009221549E2
:100E7000054803F0CFF90028BBD0DBE7E87C000889
:100E800014020020FC7C000864020020E80200201C
:100E9000087D0008147D0008307D0008607D000892
:100EA000FC020020DC020020447D00081802002023
:100EB0004C7D0008080200200C020020D47C0008B1
:100EC000E07C0008247D000808B5174B834200D061
:100ED00008BD164B1B780D2B0CD0154A1168154810
:100EE0004354136801331360012210490E4801F086
:100EF00098FBEDE70E4B19680E48002242541A6029
:100F00000D49FFF725F910B90C4B01221A600C4965
:100F10000848FFF71DF910B9084B00221A60094B69
:100F2000186802F0C9FDDFE7980200201C020020CB
:100F30002002002064020020687D000810020020CA
:100F4000707D00080C02002008B50268034B9A422D
:100F500000D008BD00F0C6F9FBE700BF002C01403F
:100F600072B6FEE708B50A480A4B03604FF4E13356
:100F7000436000238360C36003610C22426183618C
:100F8000C36101F013F900B908BDFFF7E9FF00BF25
:100F9000980200200048004000B591B028220021AE
:100FA00006A803F091F8002301930293039304939E
:100FB0000593012206924FF4803307930A9202228E
:100FC0000D920E934FF4E0130F9306A800F0B2F9C0
:100FD00080B90F23019302210291002303934FF460
:100FE00080620492059301A800F0E4FB20B911B0DF
:100FF0005DF804FBFFF7B4FFFFF7B2FF00B5A5B043
:1010000000F05EF9FFF7C8FFFFF7DAFDFFF7AAFF70
:1010100001223949394801F004FB00252295239526
:10102000012122A802F0F5FC354B1860209521958E
:10103000012120A802F0EDFC324B18601E951F958F
:1010400001211EA802F0E5FC2F4B18601C951D9590
:1010500001211CA802F0DDFC2C4B18602C4C0DF17A
:10106000540CA646BEE80F00ACE80F009EE807004F
:101070008CE80700294615A802F08FFC254B186064
:101080000DF1380C04F11C0EBEE80F00ACE80F00A7
:101090009EE807008CE8070029460EA802F07DFCB8
:1010A0001D4B18600DF11C0C04F1380EBEE80F004A
:1010B000ACE80F009EE807008CE80700294607A867
:1010C00002F06BFC154B1860EE4604F1540CBCE8C2
:1010D0000F00AEE80F009CE807008EE807002946E5
:1010E000684602F05AFC0E4B18600E48FFF78AFD66
:1010F00002F04EFCFEE700BF1C0200209802002018
:101100002402002028020020080200200C020020F7
:10111000B87B00082C02002030020020340200209E
:1011200038020020787D0008034B0360034B0B60FE
:1011300080231360704700BF0405002004030020D3
:10114000FEE7FEE7FEE7FEE7FEE7704708B5024868
:1011500000F03CFE08BD00BF5805002008B502485D
:1011600001F042F908BD00BF9802002000B583B02D
:10117000114B9A6942F001029A619A6902F00102E8
:101180000092009ADA6942F08052DA61DB6903F07A
:1011900080530193019B00220F216FF0010000F0AA
:1011A00095FD064A536823F0E06343F000735360F3
:1011B00003B05DF804FB00BF0010024000000140D6
:1011C00030B587B00023029303930493059302681C
:1011D0001B4B9A4201D007B030BD03F5E433DA6906
:1011E00042F48022DA61DA6902F480220092009AE5
:1011F0009A6942F008029A619B6903F0080301931F
:10120000019B4FF48063029302230393032305930E
:101210000C4D02A9284600F0C7FB4FF4006302936F
:1012200000240394049402A9284600F0BDFB224642
:101230000521272000F04AFD272000F07FFDCAE7A6
:1012400000480040000C014000B589B00146002272
:10125000192000F03BFD192000F070FD144B9A6935
:1012600042F400629A619B6903F400630193019B5D
:1012700002A903A800F07AFB00F068FB0D4BA3FB6A
:1012800000239B0C013B0C480C4A026040F2E73201
:10129000C260436000230361836000F08FFE18B1D9
:1012A000012009B05DF804FB034800F057FDF8E7A2
:1012B0000010024083DE1B4358050020002C014033
:1012C00008B5074A136843F010031360032000F0C9
:1012D000EBFC0F20FFF7B8FFFFF748FF002008BD29
:1012E00000200240034A1168034B1B780B44136033
:1012F000704700BFA005002008000020014B1868BF
:10130000704700BFA005002082B0084B1B68084A48
:10131000A2FB03235B0A00FB03F3019300BF019BC5
:101320005A1E0192002BF9D102B070471000002024
:10133000D34D6210002800F0F18170B582B00446F0
:10134000036813F0010F2CD0994B5B6803F00C037A
:10135000042B1DD0964B5B6803F00C03082B12D0B6
:101360006368B3F5803F41D0002B55D103F1804332
:1013700003F504331A6822F480321A601A6822F4E2
:1013800080221A6037E08A4B5B6813F4803FE7D015
:10139000874B1B6813F4003F03D06368002B00F0F9
:1013A000BF81236813F0020F75D0814B5B6813F087
:1013B0000C0F5FD07E4B5B6803F00C03082B54D0FE
:1013C0002369002B00F08A807A4B01221A60FFF714
:1013D00095FF0546764B1B6813F0020F75D1FFF79A
:1013E0008DFF401B0228F5D903209EE1704A136847
:1013F00043F480331360636843B3FFF77FFF054610
:101400006B4B1B6813F4003FCBD1FFF777FF401BFA
:101410006428F5D9032088E1B3F5A02F09D0644BE7
:101420001A6822F480321A601A6822F480221A6044
:10143000E1E703F18043A3F53C331A6842F48022CC
:101440001A601A6842F480321A60D4E7FFF756FF38
:101450000546574B1B6813F4003FA2D0FFF74EFF21
:10146000401B6428F5D903205FE1514B5B6813F4FE
:10147000803FA5D14E4B1B6813F0020F03D02369A8
:10148000012B40F04F814A4A136823F0F803616949
:1014900043EAC1031360236813F0080F33D0A36934
:1014A000002B5CD0434B0122C3F88024FFF726FFBA
:1014B00005463F4B5B6A13F0020F21D1FFF71EFF79
:1014C000401B0228F5D903202FE1394A136823F085
:1014D000F803616943EAC1031360DCE7354B00227E
:1014E0001A60FFF70BFF0546314B1B6813F0020F24
:1014F000D1D0FFF703FF401B0228F5D9032014E1E8
:101500000120FFF701FF236813F0040F00F096801D
:10151000274BDB6913F0805F34D1254BDA6942F049
:101520008052DA61DB6903F080530193019B01254E
:10153000214B1B6813F4807F26D0E368012B3DD03C
:10154000002B53D103F1804303F504331A6A22F0D0
:1015500001021A621A6A22F004021A6233E0154B81
:101560000022C3F88024FFF7C9FE0546104B5B6AD2
:1015700013F0020FC7D0FFF7C1FE401B0228F5D9B8
:101580000320D2E00025D3E70B4A136843F48073AD
:101590001360FFF7B3FE0646074B1B6813F4807F0A
:1015A000CBD1FFF7ABFE801B6428F5D90320BCE04C
:1015B0000010024000004242007000405F4A136A7F
:1015C00043F001031362E36833B3FFF797FE064667
:1015D0005A4B1B6A13F0020F2FD1FFF78FFE801BAF
:1015E00041F288339842F3D903209EE0052B09D0BD
:1015F000524B1A6A22F001021A621A6A22F004029D
:101600001A62E0E74D4B1A6A42F004021A621A6A43
:1016100042F001021A62D6E7FFF770FE0646474B1A
:101620001B6A13F0020F08D0FFF768FE801B41F21F
:1016300088339842F3D9032077E0E5B9E369002BBA
:1016400072D03E4A526802F00C02082A56D0022B91
:1016500017D03B4B00221A66FFF750FE0446374B6B
:101660001B6813F0007F47D0FFF748FE001B0228DD
:10167000F5D9032059E0314AD36923F08053D3616F
:10168000DCE72F4B00221A66FFF738FE05462B4B8E
:101690001B6813F0007F06D0FFF730FE401B0228C6
:1016A000F5D9032041E0236AB3F5803F1AD02349DE
:1016B0004B6823F47413226A606A024313434B603D
:1016C0001F4B01221A66FFF719FE04461B4B1B68CD
:1016D00013F0007F0ED1FFF711FE001B0228F5D991
:1016E000032022E0154A536823F40033A1680B431A
:1016F0005360DCE7002018E0002016E0012B16D034
:101700000E4B5B6803F48031226A914211D103F4DD
:101710007013626A93420ED1002006E001207047E8
:10172000012002E0012000E0002002B070BD012095
:10173000FBE70120F9E70120F7E700BF00100240B6
:101740000000424286B0174B0FCB0DF1180C0CE98C
:101750000F0040F20123ADF80430134B5B6803F037
:101760000C02082A02D0114806B07047C3F3834226
:1017700018326A4412F8100C13F4803F0DD00A4B53
:101780005B68C3F3404318336B4413F8143C074AB7
:1017900002FB00F0B0FBF3F0E6E7054B03FB00F0C3
:1017A000E2E700BF807D00080010024000127A00CE
:1017B00000093D00002800F0A08070B50D460446E9
:1017C000524B1B6803F007038B420BD24F4A13683E
:1017D00023F007030B431360136803F007038B42E6
:1017E00040F08D80236813F0020F17D013F0040F20
:1017F00004D0474A536843F4E0635360236813F00E
:10180000080F04D0424A536843F460535360404A7F
:10181000536823F0F003A1680B435360236813F06F
:10182000010F31D06368012B20D0022B25D0384A1C
:10183000126812F0020F64D035494A6822F00302A0
:1018400013434B60FFF75AFD0646314B5B6803F0CC
:101850000C036268B3EB820F16D0FFF74FFD801BBD
:1018600041F288339842F0D9032045E0284A1268B3
:1018700012F4003FE0D101203EE0254A126812F048
:10188000007FD9D1012037E0204B1B6803F007030C
:10189000AB420AD91D4A136823F007032B43136098
:1018A000136803F00703AB422DD1236813F0040F34
:1018B00006D0174A536823F4E063E1680B43536092
:1018C000236813F0080F07D0114A536823F46053BC
:1018D000216943EAC1035360FFF734FF0C4B5B6897
:1018E000C3F303130B4AD35CD8400B4B18600B4B6C
:1018F0001868FFF7A9FC002070BD01207047012087
:10190000FAE70120F8E70120F6E700BF00200240D7
:1019100000100240947D0008100000200C00002000
:10192000014B1868704700BF1000002008B5FFF792
:10193000F7FF044B5B68C3F30223034AD35CD84030
:1019400008BD00BF00100240A47D000808B5FFF7E5
:10195000E7FF044B5B68C3F3C223034AD35CD84060
:1019600008BD00BF00100240A47D00080F230360E3
:101970000B4B5A6802F0030242605A6802F0F00210
:1019800082605A6802F4E062C2605B68DB0803F4BC
:10199000E0630361034B1B6803F007030B607047B0
:1019A000001002400020024070B582B00024A4461E
:1019B000A6E0804DAA4210D007D97F4DAA420CD094
:1019C00005F58035AA4208D013E0A5F58015AA4296
:1019D00003D005F57025AA4207D18A68002A58D09D
:1019E000012A51D04361082403E0A5F58015AA42DD
:1019F000F3D0BEF1FF0F4ED80646BEF1FF0F4CD814
:101A00004FEA8C0233680F25954023EA050304FA58
:101A100002F2134333604B6813F0805F6ED0674B64
:101A20009A6942F001029A619B6903F001030193F4
:101A3000019B4FEA9C02951C614B53F825600CF00A
:101A400003039D000F23AB4026EA03065D4B98423B
:101A500029D003F58063984200F08E8003F58063FF
:101A6000984200F08B8003F58063984219D00423DC
:101A70001AE0CC68BDE7CC680434BAE7CC68083417
:101A8000B7E7CC680C34B4E703610824B1E700245D
:101A9000AFE70424ADE7061DAFE7ACF10802920002
:101AA000B0E7032300E00023AB4033430232444D50
:101AB00045F822304B6813F4803F61D0424A1368E6
:101AC00043EA0E0313604B6813F4003F5ED03E4AB6
:101AD000536843EA0E0353604B6813F4801F5BD0D6
:101AE000394A936843EA0E0393604B6813F4001F6E
:101AF00058D0354AD36843EA0E03D3600CF1010C89
:101B00000A6832FA0CF353D0012303FA0CF302EA09
:101B1000030E33EA0202F1D14A68122A3FF649AFB6
:101B2000122A3FF666AF01A555F822F0DB1900082E
:101B3000731A00087D1A00088F1A0008F3190008AC
:101B4000F3190008F3190008F3190008F319000845
:101B5000F3190008F3190008F3190008F319000835
:101B6000F3190008F3190008F3190008F319000825
:101B7000771A0008831A0008012395E7022393E7E8
:101B8000114A136823EA0E0313609CE70E4A536858
:101B900023EA0E0353609FE70B4A936823EA0E0380
:101BA0009360A2E7084AD36823EA0E03D360A5E74F
:101BB00002B070BD00002210000031100010024081
:101BC00000000140000801400004014090F821306D
:101BD000022B06D004238363002380F820300120E9
:101BE00070470268136823F00E03136002681368DD
:101BF00023F001031360036CC16B012202FA03F3AB
:101C00004B6080F82120002380F820301846704770
:101C100008B590F82130022B03D004238363012000
:101C200008BD0268136823F00E031360026813688E
:101C300023F0010313600368194A934214D014324D
:101C400093421FD0143293421ED0143293421ED0BE
:101C5000143293421ED01432934202D04FF080725D
:101C600003E04FF4801200E001220E4B5A60012382
:101C700080F82130002380F82030436B6BB1984707
:101C80000020CDE71022F0E74FF48072EDE74FF42B
:101C90008052EAE74FF48032E7E70020C0E700BF58
:101CA0000800024000000240074AD36823F4E063C2
:101CB0001B041B0C000200F4E060034343F0BF630D
:101CC00043F40033D360704700ED00E000B5194BDA
:101CD000DB68C3F30223C3F1070CBCF1040F28BF78
:101CE0004FF0040C03F1040EBEF1060F18D9033BAC
:101CF0004FF0FF3E0EFA0CFC21EA0C0199400EFA5F
:101D000003F322EA0303194300280BDB0901C9B2DC
:101D100000F1604000F5614080F800135DF804FBBD
:101D20000023E5E700F00F000901C9B2024B195486
:101D3000F4E700BF00ED00E014ED00E0002807DB51
:101D400000F01F02400901239340024A42F820306C
:101D5000704700BF00E100E07047000090F83D30A0
:101D6000DBB2012B27D1022380F83D300268D36813
:101D700043F00103D3600368114A934210D0B3F1DA
:101D8000804F0DD0A2F59432934209D002F58062C3
:101D9000934205D01A6842F001021A600020704791
:101DA0009A6802F00702062A07D01A6842F0010278
:101DB0001A6000207047012070470020704700BF64
:101DC000002C0140704770477047704710B50446BB
:101DD00003681A6912F0020F11D0DA6812F0020FCC
:101DE0000DD06FF002021A610123037703689B692B
:101DF00013F0030F70D0FFF7E6FF0023237723686B
:101E00001A6912F0040F12D0DA6812F0040F0ED023
:101E10006FF004021A610223237723689B6913F48D
:101E2000407F5FD02046FFF7CEFF00232377236853
:101E30001A6912F0080F12D0DA6812F0080F0ED0EB
:101E40006FF008021A61042323772368DB6913F01B
:101E5000030F4ED02046FFF7B6FF002323772368F9
:101E60001A6912F0100F12D0DA6812F0100F0ED0AB
:101E70006FF010021A61082323772368DB6913F4DB
:101E8000407F3DD02046FFF79EFF00232377236845
:101E90001A6912F0010F03D0DA6812F0010F36D17F
:101EA00023681A6912F0800F03D0DA6812F0800FED
:101EB00034D123681A6912F0400F03D0DA6812F0A7
:101EC000400F32D123681A6912F0200F03D0DA686C
:101ED00012F0200F30D110BDFFF774FF2046FFF73E
:101EE00073FF8AE72046FFF76DFF2046FFF76CFF80
:101EF0009BE72046FFF766FF2046FFF765FFACE74C
:101F00002046FFF75FFF2046FFF75EFFBDE76FF05B
:101F100001021A612046FFF717F8C1E76FF080024F
:101F20001A61204600F077F8C3E76FF040021A61AB
:101F30002046FFF74AFFC5E76FF020021A612046EE
:101F400000F068F8C7E7000003681B4A90420AD017
:101F5000B0F1804F07D0A2F59432904203D002F541
:101F60008062904203D123F070034A681343124AFF
:101F700090420AD0B0F1804F07D0A2F5943290423F
:101F800003D002F58062904203D123F44073CA6803
:101F9000134323F080034A69134303608B68C362D1
:101FA0000B688362044B984202D00123436170475F
:101FB0000B690363F9E700BF002C014040B310B583
:101FC000044690F83D30F3B1022384F83D302146B9
:101FD00051F8040BFFF7B8FF012384F8463084F86A
:101FE0003E3084F83F3084F8403084F8413084F843
:101FF000423084F8433084F8443084F8453084F823
:102000003D30002010BD80F83C30FFF7A5FEDBE737
:1020100001207047704770470268D36823F49073BB
:10202000D3600268536923F001035361036B012BF2
:1020300005D0202380F83E300023036370470268F8
:10204000D36823F01003D360F3E790F83D30DBB2A0
:10205000212B01D0022070478368B3F5805F17D031
:10206000036A5A1C02621A7803685A60C38C9BB2D6
:10207000013B9BB2C3844BB90268D36823F0800351
:10208000D3600268D36843F04003D36000207047F8
:102090000369002BE4D1036A1B880268C3F30803B9
:1020A0005360036A02330362E0E7000010B50446A0
:1020B0000268136923F44053C1680B4313618368BA
:1020C0000269134342691A430168CB6823F4B05391
:1020D00023F00C031343CB600268536923F440736D
:1020E00081690B4353610268134B9A4220D0FFF77A
:1020F0001DFC024602EB820202EB820263689B0037
:10210000B2FBF3F20D48A0FB02314909642303FB43
:1021100011231B013233A0FB03235B0903F0F00200
:1021200002EB011203F00F03216813448B6010BD12
:10213000FFF70CFC0246DDE7003801401F85EB513C
:102140002DE9F84305460F4616469946DDF82080EE
:102150002C68246837EA04030CBF4FF0010C4FF0E1
:10216000000CB4451FD1B8F1FF3FF1D0B8F1000F1A
:1021700005D0FFF7C3F8A0EB09004045E8D92A686D
:10218000D36823F4D073D3602A68536923F0010322
:102190005361202385F83D3085F83E30002385F8D3
:1021A0003C30032000E00020BDE8F88358B310B5B0
:1021B000044690F83D300BB3242384F83D30226868
:1021C000D36823F40053D3602046FFF76FFF2268E3
:1021D000136923F4904313612268536923F02A039F
:1021E00053612268D36843F40053D3600020206415
:1021F000202384F83D3084F83E3010BD80F83C3018
:10220000FEF7DEFFD8E7012070472DE9F04182B0EC
:102210001E4690F83D30DBB2202B54D104460D46CB
:102220009046002953D0002A53D090F83C30012B1F
:1022300051D0012380F83C3000230364212380F82F
:102240003D30FFF75BF80746A4F82480A4F8268009
:10225000A368B3F5805F05D04FF00008002384F831
:102260003C3012E0236913B14FF00008F6E7A846AE
:102270000025F3E738F8023B2268C3F308035360F4
:10228000E28C92B2013A92B2E284E38C9BB273B1D7
:1022900000963B46002280212046FFF751FFE0B91F
:1022A000002DE7D015F8012B23685A60E8E7009667
:1022B0003B46002240212046FFF742FF78B9202309
:1022C00084F83D3000E0022002B0BDE8F08101203A
:1022D000FAE70120F8E70220F6E70320F4E70320FD
:1022E000F2E7704708B50168CA6822F04002CA6088
:1022F000202280F83D20FFF7F4FF002008BD704742
:1023000008B5406A0023C385C384FFF7F8FF08BD02
:10231000704790F83E30DBB2222B60D18368B3F572
:10232000805F46D0826AB3F5805F04D0002B4DD128
:102330000369002B4AD103685B681370836A013319
:102340008362C38D9BB2013B9BB2C385002B48D1F6
:1023500000B583B00268D36823F02003D36002681D
:10236000D36823F48073D3600268536923F00103B8
:102370005361202380F83E30036B012B2CD10023C6
:1023800003630268D36823F01003D36003681A68FC
:1023900012F0100F06D0002201921A6801925B68B9
:1023A0000193019B818DFFF7B3FF002003B05DF81F
:1023B00004FB0269002AB5D1826A03685B68C3F333
:1023C00008031380836A02338362BAE703685B6899
:1023D00003F07F031370B1E7FEF776FDE5E7022017
:1023E000704700207047000030B583B00446026893
:1023F0001368D068516913F00F0505D113F0200F51
:1024000002D010F0200F19D12DB111F0010119D116
:1024100010F4907F16D1216B012975D013F0800F35
:1024200003D010F0800F40F0D78013F0400F03D09E
:1024300010F0400F40F0D48003B030BD2046FFF7CD
:1024400068FFF9E713F0010F06D010F4807F03D086
:10245000226C42F00102226413F0040F04D019B17F
:10246000226C42F00202226413F0020F04D019B170
:10247000226C42F00402226413F0080F07D010F01F
:10248000200F00D119B1226C42F008022264226CA4
:10249000002AD1D013F0200F02D010F0200F21D14C
:1024A00023685B6903F04003226C12F0080F00D12F
:1024B00023B32046FFF7B0FD23685A6912F0400F9E
:1024C00018D05A6922F040025A61A36B73B1464A90
:1024D0005A63A06BFFF79CFB0028ADD0A06B436B49
:1024E0009847A9E72046FFF714FFD9E72046FFF7F2
:1024F00006FFA1E72046FFF702FF9DE72046FFF712
:10250000FEFE0023236497E713F0100F86D010F02F
:10251000100F83D000230193136801935368019334
:10252000019B536913F0400F32D0A16B0B685B68BD
:102530009BB2002B80D0A08D98427FF67DAFE385C3
:102540008B69202B08D1A18DE38D9BB2C91A89B26A
:102550002046FFF7DDFE6FE7D36823F48073D36076
:102560002268536923F0010353612268536923F001
:1025700040035361202384F83E3000232363226804
:10258000D36823F01003D360A06BFFF71FFBDAE7DB
:10259000A18DE38D9BB2C91A89B2E38D9BB2002B4A
:1025A0003FF44AAF00293FF447AFD36823F4907358
:1025B000D3602268536923F001035361202384F818
:1025C0003E30002323632268D36823F01003D360D6
:1025D0002046FFF79DFE2FE72046FFF736FD2BE74D
:1025E0002046FFF77FFE27E70123000803468162AC
:1025F0008285C28500201864222283F83E2083F859
:102600003C001968CA6842F48072CA6019684A6955
:1026100042F001024A611A68D36843F02003D36094
:10262000704708B590F83E30DBB2202B0DD171B168
:102630007AB190F83C30012B0DD0012380F83C306A
:1026400000230363FFF7D2FF00E0022008BD012052
:10265000FCE70120FAE70220F8E7704700F10803E1
:1026600043604FF0FF328260C36003610023036068
:10267000704700230361704743684B609A688A6023
:10268000516099600861036801330360704730B49A
:102690000D68B5F1FF3F11D000F108031C465B68DF
:1026A0001A68AA42FAD963684B6099608C606160CD
:1026B000086103680133036030BC70470469F2E7C6
:1026C0000369416882688A60416851605A68824241
:1026D00006D0002202611A68013A1A601868704731
:1026E00082685A60F5E70346406A18B11B6B1868A8
:1026F000C0F10700704710B5044601F073FBA26BF0
:10270000E36B9A4204D0002401F08EFB204610BDFA
:102710000124F9E710B5044601F064FBA36B23B96B
:10272000012401F081FB204610BD0024F9E770B5BB
:1027300004461546866B026C5AB903681BB100202B
:102740000136A66370BD406801F04EF80023636057
:10275000F6E76DB9806801F0A9FC226CA368134408
:10276000A3606268934219D32368A3602846E7E711
:10277000C06801F09BFC226C5142E3689B1AE36045
:102780002268934202D263680B44E360022D01D0B9
:102790000020D5E726B1013E0020D1E72846CFE74B
:1027A0000020CDE708B50346026C62B10846D9683F
:1027B0001144D960D3F804C0614501D31968D960C8
:1027C000D96801F073FC08BD38B5054601F00AFB75
:1027D00095F8454064B201E0013C64B2002C0ADD8A
:1027E0006B6A43B105F1240000F0F6FE0028F3D037
:1027F00000F086FFF0E7FF2385F8453001F014FB79
:1028000001F0F0FA95F8444064B201E0013C64B292
:10281000002C0ADD2B6943B105F1100000F0DCFE4D
:102820000028F3D000F06CFFF0E7FF2385F8443078
:1028300001F0FAFA38BD38B5E0B10D46044601F0B2
:10284000D1FA2368E26B216C01FB0230606000204A
:10285000A063A360013A02FB0133E360FF2384F825
:10286000443084F84530FDB9236963B901F0DCFADE
:10287000012038BD4FF0500383F31188BFF36F8FF1
:10288000BFF34F8FFEE704F1100000F0A5FE002813
:10289000ECD04FF0E0234FF08052C3F8042DBFF38B
:1028A0004F8FBFF36F8FE1E704F11000FFF7D6FE03
:1028B00004F12400FFF7D2FED8E710B503460298D2
:1028C0000C4631B90060C36304640121FFF7B3FF14
:1028D00010BD0260F7E740B94FF0500383F3118851
:1028E000BFF36F8FBFF34F8FFEE710B584B01C4668
:1028F000844653B192B189B94FF0500383F31188E4
:10290000BFF36F8FBFF34F8FFEE74FF0500383F39A
:102910001188BFF36F8FBFF34F8FFEE76AB1482373
:102920000393039B482B13D04FF0500383F311887C
:10293000BFF36F8FBFF34F8FFEE70029EFD04FF04B
:10294000500383F31188BFF36F8FBFF34F8FFEE700
:10295000012384F8463000949DF818306046FFF754
:10296000ACFF204604B010BD40B94FF0500383F3D4
:102970001188BFF36F8FBFF34F8FFEE7F0B583B0C1
:102980000C4615460746A1B101FB00F0483001F0A6
:1029900023F9064650B1002380F8463000902B46BC
:1029A00000F1480221463846FFF787FF304603B062
:1029B000F0BD0846EAE7F0B585B0019288B10F4650
:1029C0001D460446B1B1022D20D1E36B012B1DD071
:1029D0004FF0500383F31188BFF36F8FBFF34F8F16
:1029E000FEE74FF0500383F31188BFF36F8FBFF3FF
:1029F0004F8FFEE7036C002BE5D04FF0500383F3BD
:102A00001188BFF36F8FBFF34F8FFEE700F07EFE9C
:102A1000064658B9019B002B48D04FF0500383F372
:102A20001188BFF36F8FBFF34F8FFEE700263DE0A5
:102A30002A4639462046FFF77AFE636A7BB948B1D9
:102A40004FF0E0234FF08052C3F8042DBFF34F8FB7
:102A5000BFF36F8F01F0E8F9012005B0F0BD04F17C
:102A6000240000F0B9FD0028F4D04FF0E0234FF02F
:102A70008052C3F8042DBFF34F8FBFF36F8FE9E788
:102A800001F0D2F90020E8E702A800F0EBFD0126F2
:102A900019E0002384F8443021E0002384F8453015
:102AA00023E02046FFF790FE00F090FC01F09AF939
:102AB000A26BE36B9A42BBD3022DB9D0019B002BD2
:102AC000DED0002EE0D001F0AFF900F0EBFB01F01A
:102AD00089F994F8442052B2B2F1FF3FD9D094F86A
:102AE000452052B2B2F1FF3FD7D001F09DF901A9C4
:102AF00002A800F0C3FDD8B92046FFF7FCFD00286E
:102B0000CFD0019904F1100000F04EFD2046FFF7F0
:102B10005BFE00F05BFC0028C8D14FF0E0234FF0D3
:102B20008052C3F8042DBFF34F8FBFF36F8FBDE703
:102B30002046FFF749FE00F049FC00208DE768B110
:102B400070B50C460546036C8BB14FF0500383F310
:102B50001188BFF36F8FBFF34F8FFEE74FF0500325
:102B600083F31188BFF36F8FBFF34F8FFEE70368C6
:102B7000EBB101F021FAEFF311864FF0500383F32C
:102B80001188BFF36F8FBFF34F8FAA6BEB6B93422C
:102B900026D995F845305BB20132AA63B3F1FF3F05
:102BA00011D001335BB285F84530012019E043684C
:102BB000002BDED04FF0500383F31188BFF36F8FEB
:102BC000BFF34F8FFEE76B6A0BB9012009E005F1F7
:102BD000240000F001FD38B144B10120206000E084
:102BE000002086F3118870BD0120FAE70120F8E784
:102BF00070B584B0019158B10446036C8BB14FF0AD
:102C0000500383F31188BFF36F8FBFF34F8FFEE73D
:102C10004FF0500383F31188BFF36F8FBFF34F8FD3
:102C2000FEE700F073FD054650B9019B5BB14FF024
:102C3000500383F31188BFF36F8FBFF34F8FFEE70D
:102C40000026354655E0064653E0013BA363236862
:102C50003BB123694BB901F0E7F80126304604B0D7
:102C600070BD00F07BFE6060F3E704F1100000F03F
:102C7000B3FC0028EFD04FF0E0234FF08052C3F8B0
:102C8000042DBFF34F8FBFF36F8FE4E746B14FF0D2
:102C9000500383F31188BFF36F8FBFF34F8FFEE7AD
:102CA00001F0C2F8DAE702A800F0DCFC01252AE016
:102CB000002384F8443032E0002384F8453034E0C7
:102CC00001F090F8606800F031FD064601F0ACF8C4
:102CD0003BE02046FFF778FD00F078FB09E0204656
:102CE000FFF772FD00F072FB2046FFF713FD00288E
:102CF00042D101F077F8A36B002BA6D1019B002BEA
:102D0000C4D0002DCFD001F08FF800F0CBFA01F045
:102D100069F894F844305BB2B3F1FF3FC8D094F83F
:102D200045305BB2B3F1FF3FC6D001F07DF801A999
:102D300002A800F0A3FC0028D1D12046FFF7EAFC4E
:102D40000028C6D02368002BBAD0019904F12400D2
:102D500000F02AFC2046FFF737FD00F037FB002883
:102D6000C7D14FF0E0234FF08052C3F8042DBFF3DA
:102D70004F8FBFF36F8FBCE70EB900266EE701F0EF
:102D800031F82046FFF7AFFC0146606800F086FD91
:102D900001F04AF8F1E72DE9F843B0B10D461646C7
:102DA0000446D9B101F008F9EFF311884FF0500350
:102DB00083F31188BFF36F8FBFF34F8FA76BCFB92A
:102DC000002088F31188BDE8F8834FF0500383F3A7
:102DD0001188BFF36F8FBFF34F8FFEE7036C002B9B
:102DE000E0D04FF0500383F31188BFF36F8FBFF330
:102DF0004F8FFEE794F844904FFA89F92946204610
:102E0000FFF7D0FC013FA763B9F1FF3F06D009F1FE
:102E100001035BB284F844300120D2E723690BB987
:102E20000120CEE704F1100000F0D6FB18B126B166
:102E300001203060C5E70120C3E70120C1E70000A1
:102E4000084B1B681B6823B9074B4FF0FF321A6011
:102E50007047044B1B68DB68DB685A68024B1A60DA
:102E6000704700BFA8050020800600202DE9F0472C
:102E700007469846089DDDF824900A9C266B02F1CF
:102E80008042013A06EB820626F007064FF0000C5E
:102E9000BCF10F0F0BD811F80C2004EB0C0383F8D6
:102EA000342011F80C3013B10CF1010CF0E70023C1
:102EB00084F84330062D00D90625E56265644FF09D
:102EC000000AC4F848A0201DFFF7D3FB04F1180046
:102ED000FFF7CFFB2461C5F10705A5616462C4F863
:102EE0004CA084F850A042463946304600F054FFCA
:102EF0002060B9F1000F01D0C9F80040BDE8F087AB
:102F000038B5002407E004EB840293000E4818440F
:102F1000FFF7A4FB0134062CF5D90C4D2846FFF72A
:102F20009DFB0B4C2046FFF799FB0A48FFF796FBE9
:102F30000948FFF793FB0948FFF790FB084B1D601A
:102F4000084B1C6038BD00BFB005002054060020AF
:102F50006806002088060020B4060020A006002095
:102F6000A8050020AC05002010B5044600F03AFF8B
:102F7000214A136801331360204B1B685BB1204B5F
:102F80001B686BB91D4B1B68DA6AE36A9A4207D863
:102F90001A4B1C6004E0194B1C601368012B28D0ED
:102FA000184A136801331360E06A01238340164A0C
:102FB00011680B43136000EB8000211D134B03EBE2
:102FC0008000FFF759FB00F02FFF0D4B1B687BB112
:102FD0000A4B1B68DA6AE36A9A4209D24FF0E0238F
:102FE0004FF08052C3F8042DBFF34F8FBFF36F8FA4
:102FF00010BDFFF785FFD3E73C060020A4050020A5
:103000009C0600204C06002050060020B005002041
:1030100010B5044690F8513063B1012B11D0022B4A
:103020000ED04FF0500383F31188BFF36F8FBFF3BF
:103030004F8FFEE7006B00F047FE204600F044FE95
:1030400010BD00F041FEFBE70F4B1B68D3B110B57C
:1030500000F0C8FE0D4BDB68DC68201DFFF730FB7D
:103060000B4A1368013B1360074A1368013B136066
:1030700000F0DAFE2046FFF7CBFF034B1B68002B66
:10308000E6D110BD704700BF40060020B406002006
:103090003C06002008B5FFF7D7FF074B1B68012B44
:1030A000F9D94FF0E0234FF08052C3F8042DBFF35D
:1030B0004F8FBFF36F8FEEE7B005002070B5044669
:1030C0000D461D4B1E681D4B18680430FFF7F8FABB
:1030D00050B91A4B1B68DA6A012303FA02F2184945
:1030E0000B6823EA02030B60B4F1FF3F0DD03444B8
:1030F000124B1B685C60A64210D9124B18680F4B2C
:1031000019680431FFF7C3FA70BD002DEFD00B4BE7
:10311000196804310C48FFF7AFFAF5E70B4B186854
:10312000064B19680431FFF7B2FA094B1B68A3423A
:10313000EAD9074B1C60E7E7C8060020A405002079
:1031400050060020AC050020A0060020A8050020A5
:103150008006002030B587B00B9C7CB10C9DB5B1CA
:1031600054250495049D542D1AD04FF0500383F339
:103170001188BFF36F8FBFF34F8FFEE74FF05003FF
:1031800083F31188BFF36F8FBFF34F8FFEE74FF0CC
:10319000500383F31188BFF36F8FBFF34F8FFEE7A8
:1031A0000C9D2C63022485F8514000240394029561
:1031B00005AC01940A9C0094FFF758FE0C98FFF7A9
:1031C000D3FE059807B030BD2DE9F04385B0074622
:1031D000884614461E46900000F0FEFC00B381466F
:1031E000542000F0F9FC0546B0B1C0F83090E5B1CC
:1031F000002385F85130039302950D9B01930C9B9E
:1032000000933346224641463846FFF72FFE2846B4
:10321000FFF7AAFE012005E0484600F055FDE6E76D
:103220004FF0FF3005B0BDE8F0834FF0FF30F9E715
:1032300010B588B000240594069407AA06A905A82D
:10324000FDF772FF059B0293069B019300942346B2
:10325000079A0E490E48FFF77DFF0E4B186090B19C
:103260004FF0500383F31188BFF36F8FBFF34F8F7D
:10327000094B4FF0FF321A60084B01221A60084BCD
:103280001C6000F039FE08B010BD00BFAC7D000826
:10329000953000087C060020800600209C06002057
:1032A000C8060020024A136801331360704700BF4C
:1032B00048060020F8B53A4B1B68002B64D1394B07
:1032C0001D6801351D60C5B9374B1B681B6843B1CC
:1032D0004FF0500383F31188BFF36F8FBFF34F8F0D
:1032E000FEE7314A1168314B186810601960304AA6
:1032F000136801331360FFF7A3FD2E4B1B68AB422D
:1033000038D900272C4B1B68DB6A03EB83039A0038
:103310002A4B9B58012B3CD901273AE00127224B2D
:103320001B681B6843B3204B1B68DB68DC68636861
:103330009D4226D3261D3046FFF7C2F9A36A1BB172
:1033400004F11800FFF7BCF9E36A01229A401C4916
:10335000086802430A6003EB83039A00314617486A
:103360001044FFF789F9E26A134B1B68DB6A9A4243
:10337000D4D2D4E70027D2E70E4B4FF0FF321A60C9
:10338000C0E70C4A1360BDE70E4A136801331360AF
:1033900000270D4B1B6803B101273846F8BD00BF5D
:1033A00048060020C8060020A8050020AC05002023
:1033B0008406002080060020A4050020B00500201F
:1033C0005006002044060020CC06002038B5354BBE
:1033D0001B6843B94FF0500383F31188BFF36F8F1D
:1033E000BFF34F8FFEE700F0FDFC2E4B1A68013A49
:1033F0001A601B68002B4FD12B4B1B680BB90024A4
:103400004BE00024294B1B681BB3284BDB68DC68AE
:1034100004F11800FFF754F9251D2846FFF750F96D
:10342000E06A01238340224A11680B43136000EBDA
:10343000800029461F4B03EB8000FFF71DF9E26A6D
:103440001D4B1B68DB6A9A42DCD31C4B01221A60BD
:10345000D8E70CB1FFF7F4FC194B1C6884B9174B83
:103460001C68D4B14FF0E0234FF08052C3F8042D14
:10347000BFF34F8FBFF36F8F01240EE0013C07D0E5
:10348000FFF718FF0028F9D00C4B01221A60F5E76E
:103490000B4B00221A60E2E7002400F0C5FC204636
:1034A00038BD00BF480600203C06002088060020EA
:1034B00050060020B0050020A4050020CC06002006
:1034C0004406002010B5A8B10446104B1B6843B158
:1034D0004FF0500383F31188BFF36F8FBFF34F8F0B
:1034E000FEE7FFF7DFFE00212046FFF7E7FDFFF7CD
:1034F0006DFF48B94FF0E0234FF08052C3F8042D20
:10350000BFF34F8FBFF36F8F10BD00BF4806002081
:10351000204B1B681BB1204B01221A6070471E4BC9
:1035200000221A601D4B1B68B3FA83F3DBB2C3F1B0
:103530001F0303EB83018A0019498A5842B94FF0EF
:10354000500383F31188BFF36F8FBFF34F8FFEE7F4
:10355000134903EB830082000A44506840685060BE
:1035600003EB830C4FEA8C0208321144884209D0E5
:1035700003EB83039A000A4B13445B68DA68094B38
:103580001A607047406862469100054A0A445060DC
:10359000EEE700BF48060020CC06002050060020C1
:1035A000B0050020A405002058B110B50C46094A0A
:1035B00011681831FFF76BF801212046FFF77EFDF7
:1035C00010BD4FF0500383F31188BFF36F8FBFF32B
:1035D0004F8FFEE7A405002038B5C368DC6824B32C
:1035E00004F118052846FFF76BF8184B1B682BBB36
:1035F000251D2846FFF764F8E06A01238340144A3A
:1036000011680B43136000EB80002946114B03EB5C
:103610008000FFF731F8E26A0F4B1B68DB6A9A42C1
:1036200011D901200D4B186038BD4FF0500383F3C2
:103630001188BFF36F8FBFF34F8FFEE7294608480D
:10364000FFF71AF8E7E70020EEE700BF4806002082
:1036500050060020B0050020A4050020CC06002064
:1036600088060020034B1B680360034B1B68436004
:10367000704700BF84060020C8060020D8B170B58E
:103680000C46054601B300F0ADFB1B4B19686B6897
:10369000C81A2268B2F1FF3F27D0184E3668D5F815
:1036A00000C0B44501D08B4224D9824215D80023F2
:1036B000236001241AE04FF0500383F31188BFF315
:1036C0006F8FBFF34F8FFEE74FF0500383F31188E6
:1036D000BFF36F8FBFF34F8FFEE75B1A1344236076
:1036E0002846FFF7BFFF002400E0002400F09CFB09
:1036F000204670BD0124F9E7C8060020840600209A
:10370000014B01221A607047CC060020054B1B6854
:1037100033B1054B1B680BB1002070470220704786
:10372000012070479C06002048060020002851D048
:1037300038B50446C36A294A1268D26A934241D214
:103740008269002A05DB254A1268D26AC2F10702A3
:103750008261616903EB8303214A02EB830399428F
:1037600005D01E4B1B68DB6AE362012038BD251DB6
:103770002846FEF7A5FFA0B1184B1B68D86AE06287
:10378000012404FA00F3174A11680B43136000EB9D
:1037900080002946124B03EB8000FEF76DFF2046A8
:1037A000E4E7E26A02EB82039B000D49CB58002B51
:1037B000E2D1012303FA02F20A490B6823EA020369
:1037C0000B60D9E7426C054B1B68DB6A9A4203D356
:1037D0000020CBE7002070470120C7E7A4050020A8
:1037E000B00500205006002000284CD038B5044613
:1037F000274B1B68834208D04FF0500383F3118896
:10380000BFF36F8FBFF34F8FFEE7836C43B94FF069
:10381000500383F31188BFF36F8FBFF34F8FFEE721
:10382000013B8364C16A426C91422ED00BB10020EF
:1038300038BD051D2846FEF743FF70B9E26A02EB6A
:1038400082039B001349CB583BB9012303FA02F2D0
:1038500011490B6823EA02030B60606CE062C0F15F
:103860000703A361012404FA00F30B4A11680B4318
:10387000136000EB80002946064B03EB8000FEF747
:10388000FBFE2046D4E7002070470020D0E700BFB1
:10389000A4050020B005002050060020002856D0C6
:1038A00038B50446836C43B94FF0500383F3118855
:1038B000BFF36F8FBFF34F8FFEE7426C8A4200D297
:1038C0000A46E16A914201D0012B00D038BD204B5D
:1038D0001B68A34232D0E262A369002B02DBC2F173
:1038E0000702A261626901EB81011A4B03EB8101BE
:1038F0008A42EBD1251D2846FEF7E2FE70B9E26A46
:1039000002EB82039B001349CB583BB9012303FA16
:1039100002F211490B6823EA02030B60E06A0123FB
:1039200083400D4A11680B43136000EB8000294669
:10393000084B03EB8000FEF79FFEC7E74FF05003F4
:1039400083F31188BFF36F8FBFF34F8FFEE770478C
:10395000A4050020B005002050060020054B1B6880
:1039600023B1044B1A68936C01339364014B1868BC
:10397000704700BFA4050020842801D003307047A1
:1039800000207047EFF30580003818BF0120704712
:1039900008B5FFF74DFC002008BD2DE9F04387B0C6
:1039A00004460F464569BDB18669AEB1D0F80480C2
:1039B000D0F80090B0F90800FFF7DEFF02960195FD
:1039C00000903B46226949464046FFF7C3FB0590FD
:1039D000059807B0BDE8F08365682668D4F81080C4
:1039E000B4F90800FFF7C8FF05AB019300903B4610
:1039F0001FFA88F231462846FFF7E6FB0128E7D098
:103A00000020E6E708B500B90120FFF75BFD0020C4
:103A100008BD10B582B044687CB1012903D00024F0
:103A2000204602B010BD0323009323460022114616
:103A30000120FEF750FF0446F2E70129F0D10322EE
:103A400000210120FEF790FF04460028E8D0002363
:103A50001A461946FEF7AFFFE2E770B582B00023C1
:103A6000019318B30C460646FFF78CFF0546A0B13C
:103A700001AA00213046FFF78EF9012818D1019DD7
:103A80008DB14FF0E0234FF08052C3F8042DBFF307
:103A90004F8FBFF36F8F002505E021463046FFF7BB
:103AA000A7F8012806D1284602B070BD8025FAE7A4
:103AB000FF25F8E7FF25F6E710B582B0044600239E
:103AC0000193FFF75FFF98B101A92046FFF737F890
:103AD00001281AD1019BD3B14FF0E0234FF080525F
:103AE000C3F8042DBFF34F8FBFF36F8F002008E0A2
:103AF00000231A4619462046FEF75DFF012802D032
:103B0000FF2002B010BD0020FBE7FF20F9E70020F6
:103B1000F7E70000124A12F0070F1ED0D11D21F066
:103B20000701C1F5406313440A460E4802600021B4
:103B300041601344083B23F007030B4803605960BE
:103B40001960991A51601360084B1960084B19608D
:103B5000084B4FF000421A6070474FF44063E4E7AF
:103B6000D4060020E0120020D0060020DC12002045
:103B7000D8120020D4120020154B1A461B6883422D
:103B8000FBD3516802EB010C844509D0416800EB7E
:103B9000010C634509D00360904218D01060704753
:103BA0004068014451601046F0E710B4094C2468A5
:103BB000A3420AD05B681944416013681B68036024
:103BC000904200D0106010BC70470460F8E7704766
:103BD000E0120020D006002070B50546FFF762FB1A
:103BE000344B1B68A3B1344B1B681D424AD135B11D
:103BF000083515F0070F02D025F007050835002D10
:103C000042D02E4B1B68AB424DD32D4A146804E0C2
:103C1000FFF780FFE7E722461C466368AB4202D20B
:103C20002368002BF7D1234B1B68A3423DD01668B5
:103C300008362368136063685B1B102B10D960196A
:103C400010F0070F08D04FF0500383F31188BFF333
:103C50006F8FBFF34F8FFEE743606560FFF78CFF08
:103C6000626816490B689B1A0B60164909688B42FB
:103C700001D214490B60104B1B681343636000238F
:103C8000236002E0002600E00026FFF79FFB16F00D
:103C9000070F0CD04FF0500383F31188BFF36F8FE1
:103CA000BFF34F8FFEE70026EFE70026EDE7304633
:103CB00070BD00BFD0060020D4120020D812002012
:103CC000E0120020DC12002080B338B50446A0F1D9
:103CD000080550F8043C164A1268134208D14FF008
:103CE000500383F31188BFF36F8FBFF34F8FFEE74D
:103CF00050F8081C41B14FF0500383F31188BFF313
:103D00006F8FBFF34F8FFEE723EA020340F8043CB6
:103D1000FFF7C8FA54F8041C064A13680B441360F2
:103D20002846FFF729FFFFF751FB38BD704700BF5A
:103D3000D4120020D812002082B0002301930D4B32
:103D40001B68B3F1FF3F08D04FF0500383F3118895
:103D5000BFF36F8FBFF34F8FFEE74FF0500383F336
:103D60001188BFF36F8FBFF34F8F019B002BFCD0E7
:103D700002B070471400002006480068006880F315
:103D8000088862B661B6BFF34F8FBFF36F8F00DF55
:103D900000BF000008ED00E04FF0807340F8043CE5
:103DA00021F0010140F8081C034B40F80C3C40F89E
:103DB000202C4038704700BF393D0008000000004B
:103DC000074B19680868B0E8F00F80F30988BFF363
:103DD0006F8F4FF0000080F311884EF00D0E70478A
:103DE000A40500204FF0500383F31188BFF36F8FB9
:103DF000BFF34F8F0B4A136801331360012B00D0C0
:103E000070474FF0E023D3F8043D13F0FF0FF7D0D5
:103E10004FF0500383F31188BFF36F8FBFF34F8FC1
:103E2000FEE700BF14000020094B1B6843B94FF0A8
:103E3000500383F31188BFF36F8FBFF34F8FFEE7FB
:103E4000013B034A13600BB983F31188704700BF2D
:103E5000140000200000000000000000000000002E
:103E6000EFF30980BFF36F8F0D4B1A6820E9F00F55
:103E700010602DE908404FF0500080F31188FFF7E3
:103E800047FB4FF0000080F31188BDE80840196837
:103E90000868B0E8F00F80F30988BFF36F8F7047B0
:103EA000A405002008B54FF0500383F31188BFF339
:103EB0006F8FBFF34F8FFFF7FDF928B14FF0E0236D
:103EC0004FF08052C3F8042D002383F3118808BDFE
:103ED0004FF0E022002313619361054B1B680549F5
:103EE000A1FB03139B09013B536107231361704737
:103EF00010000020D34D621010B582B02A4B1A7802
:103F0000D2B20192FF221A701B78DBB28DF8033017
:103F10009DF8033003F05003244A1370244B07220A
:103F20001A6009E0224A1368013B13609DF80330D0
:103F30005B00DBB28DF803309DF8033013F0800F87
:103F4000F0D11B4B1B68032B08D04FF0500383F3B9
:103F50001188BFF36F8FBFF34F8FFEE71B02144A28
:103F6000136003F4E0631360019BDBB20E4A13702D
:103F70004FF0E023D3F8202D42F47002C3F8202D37
:103F8000D3F8202D42F07042C3F8202DFFF7A0FF98
:103F90000024084B1C60FFF7EFFEFFF7B9FAFFF7AC
:103FA000CBFE204602B010BD00E400E0E812002085
:103FB000EC12002014000020EFF305830F2B0FD923
:103FC000114A9B5CDBB2114A12789A4208D94FF031
:103FD000500383F31188BFF36F8FBFF34F8FFEE75A
:103FE0004FF0E023D3F80C3D03F4E063084A126875
:103FF000934208D94FF0500383F31188BFF36F8FBA
:10400000BFF34F8FFEE77047F0E300E0E8120020B7
:10401000EC1200200C480D490D4A002302E0D45850
:10402000C4500433C4188C42F9D30A4A0A4C002302
:1040300001E013600432A242FBD3FEF70EFB00F056
:1040400011F8FCF7DBFF704700000020EC010020B6
:1040500050820008EC01002004130020FEE700213C
:1040600000F0F6BE70B500260C4D0D4C641BA4107C
:10407000A64209D103F094FD00260A4D0A4C641BA8
:10408000A410A64205D170BD55F8043B98470136EF
:10409000EEE755F8043B98470136F2E748820008FE
:1040A00048820008488200084C8200080A44914275
:1040B00000F1FF3300D1704710B511F8014B914268
:1040C00003F8014FF9D110BD03460244934200D1D9
:1040D000704703F8011BF9E70EB46FF0004100B51B
:1040E0009CB01DAB029006900791049108480949C5
:1040F00053F8042B0591006802A9019302F01CF803
:104100000022029B1A701CB05DF804EB03B07047EC
:10411000180000200802FFFF0EB44FF4017230B502
:104120009CB01FAC54F8045BADF8142002900690CC
:10413000FCF718F80B4B03900B9300230F93149389
:104140004FF6FF7307900848ADF816302A4623460D
:1041500002A90068019402F049F91CB0BDE83040A2
:1041600003B070478F4100081800002010B50C46BE
:10417000B1F90E1002F09CFD0028ABBF636DA3895E
:104180001B1823F48053ACBF6365A38110BD0020CE
:1041900070472DE9F0411F468B890546DB050C462B
:1041A000164605D502230022B1F90E1001F0E4F9FC
:1041B000A389324623F48053A38128463B46B4F9B1
:1041C0000E10BDE8F04100F04FBE10B50C46B1F93D
:1041D0000E1001F0D1F9431CA38915BF606523F4CB
:1041E000805343F48053A38118BFA38110BDB1F95C
:1041F0000E1000F04BBE024610B514781346013283
:10420000002CFAD1013B11F8012B03F8012F002AF1
:10421000F9D110BD034610B572B10139841813F8F5
:10422000010B11F8012F904201D1A34201D1801A54
:1042300010BD0028F3D1FAE71046F9E72DE9F04167
:104240000F46904601F02CFD04460D46B8F1000FD4
:1042500011D0C7F30A53C3F16B03002B0BDD00240D
:104260001B0503F17F5505F5401522462B46FCF74B
:104270003DF904460D4620462946BDE8F081000080
:104280002DE9F04F9B4600239FB01A939E4B824628
:104290001F680E4638461592FBF764FF4FF0000882
:1042A00004464FF000091996199B1A782B2A4CD016
:1042B0003AD80D2A33D8082A33D8002A3DD0002313
:1042C0000A93199D2B78302B40F0AA806B7803F06D
:1042D000DF03582B66D10A9B504601931AAB00931B
:1042E0008A4ACDF808B01BAB19A900F047FE10F0C0
:1042F0000706044605D0062E29D10023013519955D
:104300000A93159B002B40F08A850A9BD3B1424645
:1043100009F10043104619461FB0BDE8F08F202A6E
:10432000CDD101331993BFE72D2AC8D101220A92BA
:104330005A1C19925B78002BC3D1159B1996002B40
:1043400040F06B8542464B46E4E70022EFE71A9ABD
:104350003AB135211CA801F0A7FD50461A9901F089
:104360006FF9013E042E06D8DFE806F00A031417A1
:104370000A00DDE91C892107C3D549F00049C0E7DF
:104380001B9ADDE91C8302F2334223F4801343EAD3
:104390000259F0E7DFF87891EDE76FF000494FF050
:1043A000FF38E8E7199B5A1C19925B78302BF9D03B
:1043B000002BA6D001230793199B0A220893002300
:1043C0009B46CDE9053319980578A5F13003D9B29C
:1043D000092927D922463946FFF71CFF002833D088
:1043E00000202A465C4603460490652A01D0452AEF
:1043F00014D11CB9079A02439FD00024199E721C45
:10440000199272782B2A79D02D2A00F08380002708
:10441000A2F13001092940F28380199600259FE01E
:104420000023C8E7BBF1080FD5BF0699059902FB29
:10443000013302FB013300F10100D4BF0693059361
:104440000BF1010B1990BEE7199B1A1919921A5D0D
:10445000BBF1000F36D05C460490A2F13003092B6B
:1044600012D90123C1E7199B01305A1C19925A78BD
:10447000302AF8D0A2F13103082B00F2D584049041
:1044800000200446199B0893303A00F1010313D031
:10449000049905191944049123460A21AB4213D10A
:1044A0002318082B04F1010404441BDC0A23069999
:1044B00003FB012306930023199A1846511C1991F6
:1044C0005278CAE75846D3E7082B04DC069F4F43CF
:1044D00006970133E2E75F1C102FDEBF059F4F43B5
:1044E0000597F6E7102CDFBF0A23059903FB01238C
:1044F0000593E0E70023049301237BE70027B21C28
:104500001992B27884E700BFB47E0008C47D000829
:104510000000F07F0127F2E7199A511C1991527897
:10452000302AF9D0A2F1310108293FF677AF4FF0D8
:104530000A0EA2F1300C199A0992199A511C19917C
:104540005278A2F13005092D35D9099D491B08295A
:1045500044F61F6502DC6545A8BF654607B16D429C
:10456000002C4CD1079901437FF4CBAE002B7FF494
:10457000E4AE692A26D023DC492A23D04E2A7FF4D0
:10458000DCAE9D4919A800F047FF00283FF4D5AEE6
:10459000199B1B78282B2CD198491CAA19A800F02C
:1045A0004FFF052825D11D9BDDF8708043F0FF49A2
:1045B00049F4E009A5E60EFB0C2CACF1300CBCE78D
:1045C0006E2ADCE78E4919A800F026FF00283FF488
:1045D000B4AE199B8B49013B19A8199300F01CFF3D
:1045E00010B9199B013319934FF00008DFF81892A6
:1045F00087E6864802F06EFB8046894681E6049B8A
:10460000BBF1000F08BFA346EB1A102C06982646F4
:104610000793A8BF1026FBF7EFFE092C80468946BA
:1046200013DD7B4B03EBC60353E91223FBF75EFF5D
:10463000804605988946FBF7DFFE02460B4640465A
:104640004946FBF79DFD804689460F2C36DC079BCB
:10465000002B3FF456AE22DD162B09DC6C49424696
:1046600001EBC3014B46D1E90001FBF73FFFC3E774
:10467000079AC4F12503934220DB654DC4F10F0472
:1046800005EBC4014246D1E900014B46FBF72EFF82
:10469000079B1C1B05EBC405D5E90023E5E7079B39
:1046A00016330BDB049B40465D1B594B494603EB1D
:1046B000C505D5E90023FCF743F89DE7079BA61B3A
:1046C0001E44002E74DD16F00F030AD050494246F6
:1046D00001EBC301D1E900014B46FBF707FF804620
:1046E000894636F00F0652D0B6F59A7F27DD4FF097
:1046F000000BCDF810B0CDF820B0CDF818B02223C3
:104700004FF00008DFF80091CAF80030089B002B3A
:104710003FF4F7AD50461A9900F092FF50460699C3
:1047200000F08EFF5046049900F08AFF5046089929
:1047300000F086FF5946504600F082FFE1E5354B18
:1047400040460593002349461F463611012E21DCC1
:104750000BB1804689462F4BA9F1547903EBC7076B
:104760004246D7E900014B46FBF7C0FE264B0A46FE
:104770000B40294980468B42B9D8A1F580118B4264
:1047800086BF4FF0FF38DFF8949002F15479002390
:1047900005937FE0F20705D5059BD3E90023FBF7DE
:1047A000A5FE0123059A0137083276100592CDE760
:1047B000EDD0764216F00F020AD0154B404603EBBF
:1047C000C2034946D3E90023FBF7BAFF8046894676
:1047D0003611DCD01F2E23DD4FF0000BCDF810B0CA
:1047E000CDF820B0CDF818B022234FF000084FF0DC
:1047F0000009CAF8003089E7C17D0008D87D0008AB
:10480000B87D0008BB7D00080000F07FE58000084F
:10481000887F0008607F00080000A07CFFFFEF7F1A
:1048200016F0100318BF6A2340460593494600233B
:10483000B04FF20704D5D7E90023FBF757FE012359
:10484000761007F10807F4D10BB180468946059B25
:10485000C3B1C9F30A52C2F16B03002B494611DD03
:104860001F2B40F32781342BD8BF4FF0FF334FF07D
:104870000008CFBF4FF05C79C2F14B0203FA02F29D
:1048800002EA01090022002340464946FCF796F857
:104890000028A1D1069B5A4600935046234608990A
:1048A00000F036FF089000283FF421AF049B4FF042
:1048B000000B5D1B079BCDF810B0002BB4BF2B463F
:1048C00000230E93079B23EAE3731493089B50463F
:1048D000596800F075FE069000283FF410AF089B61
:1048E0000C301A6903F10C0102329200FFF7DEFB73
:1048F0001CAB01931BAB009342464B465046CDE99F
:104900000C8901F047FA1A9000283FF4F8AE012113
:10491000504600F095FF0346049000283FF4EFAEA8
:104920001B9D1C9A002DABBF0E9B149BEE185C1BAD
:10493000059BA8BF149CA5EB030515446E4B05F120
:10494000FF35B8BF0E9E9D42C2F1360280F2C48090
:104950005B1B1F2B4FF00107A2EB030200F3B1809A
:10496000002507FA03F30F93B718059BBE421444C2
:104970001C443346A8BF3B46A342A8BF2346002B96
:10498000C2BFFF1AE41AF61A0E9B002B17DD1A4657
:104990005046049901F012F8049000283FF4AFAE9D
:1049A00001461A9A504600F061FF099000283FF432
:1049B000A6AE50461A9900F043FE099B1A93002FA9
:1049C00000F38E80079B002B08DD5046149A069951
:1049D00000F0F4FF069000283FF491AE002C08DDB3
:1049E00022465046069901F043F8069000283FF40D
:1049F00086AE002E08DD32465046049901F038F8A4
:104A0000049000283FF47BAE5046069A1A9901F0B4
:104A1000BBF8834600283FF472AE0024C3680499B3
:104A2000C4600B9301F094F8A0426BDA0B9B53EA3D
:104A3000080340F09180C9F31303002B40F08C80F1
:104A400029F000431B0D1B05B3F1D66F40F28480A3
:104A5000DBF814301BB9DBF81030012B7CDD594634
:104A60000122504601F004F80499834601F070F8E1
:104A7000002871DD05994B46204A002900F08C8002
:104A800002EA0901B1F1D66F00F38680B1F15C7FD3
:104A90007FF7AAAE40464946194B0022FBF726FD98
:104AA0000B46034308BF22238046894608BFCAF845
:104AB00000302FE64FF0FF3202FA03F303EA080852
:104AC000E0E6C5F17F4505F57F0505F57B45E23557
:104AD00007FA05F50F9747E7012300250F9343E7F2
:104AE0003A4650461A9900F0C3FF1A9000287FF406
:104AF00069AF04E6F07D000802FCFFFF0000F07FD4
:104B000000005039CDF8249065D10B9AC9F31303F6
:104B10005AB3994A93422BD1059B414603B34A4667
:104B2000964B1340B3F1D46F4FF0FF321BD81B0DDF
:104B3000C3F16B0302FA03F3994219D1904B099A1E
:104B40009A4202D101313FF4DAAD4FF000088B4BAD
:104B5000099A1A4002F58019059B002B9AD1D9E5D4
:104B60004FF0FF33E8E71346E6E753EA080381D046
:104B7000E5B1099B1D42EFD00B9B40464946059A83
:104B8000C3B1FFF75BFB02460B46DDE90C01FBF707
:104B9000F7FA80468946DFE71340A3F580136FEAF2
:104BA00013594FF0FF386FEA0959D5E70F9B13EA05
:104BB000080FE0E7FFF742FB02460B46DDE90C0178
:104BC000FBF7DCFA0022002380468946FBF7F6FE5D
:104BD0000028C1D008E65846049901F037F90022B0
:104BE0004FF0804306460F46FBF7FCFE002870D0CE
:104BF0000B9B002B42D00026624F624D099B23F095
:104C000000431B0D1B050F930F9A5F4B9A4240F018
:104C1000C380099B4046A3F15479494601F040F80E
:104C200002460B4630463946FBF760FC42464B468F
:104C3000FBF7A6FA0B465149544A19409142804667
:104C40005DD90D9A4E4B9A4203D10C9B01333FF430
:104C500056AD4FF0FF38DFF8289150461A9900F012
:104C6000EFFC5046069900F0EBFC5046049900F02A
:104C7000E7FC5946504600F0E3FC27E6B8F1000F88
:104C800019D1099BC3F31303E3B900223046394617
:104C90003C4BFBF79DFEC8B90022304639463C4BE1
:104CA000FBF724FC04460D4605F1004316941793C8
:104CB000DDE91667A2E7B8F1010F03D1099B002BCC
:104CC0003FF492AD00260024324F96E70B9C304D06
:104CD000EAE72F4B002230463946FBF707FC0B9BD7
:104CE00004460D4633B901F1004310901193DDE9FC
:104CF000106783E702460B46CDE91023F7E703F17F
:104D00005479059B002BA8D129F000430F9A1B0D65
:104D10001B059A42A1D120462946FBF719FFFBF754
:104D2000B7FB02460B4620462946FBF727FA0B9AAB
:104D3000C9F3130343EA0803134304460D4666D040
:104D400009A3D3E90023FBF743FE00287FF4E2AC7C
:104D500007A3D3E9002320462946FBF757FE002886
:104D60003FF47BAFD6E400BF9535A094FFFFDF3F53
:104D700035E5AF350000E03FFFFF0F000000F07F9A
:104D8000FFFFEF7F0000F03F0000E07FFFFF9F7C10
:104D90000000E03F0000F0BF059B13B30F9BB3F191
:104DA000D46F1ED826A3D3E9002320462946FBF75B
:104DB00019FE90B129462046FBF75AFE012838BF5C
:104DC0000120FBF719FB0B9B04460D46D3B901F1FB
:104DD000004312901393DDE912670F9A07F1D6632F
:104DE0009F1ADDE90C0100F05BFF02460B463046DE
:104DF0003946FBF77BFBDDE90C23FBF7C1F9804665
:104E000089467EE702460B46CDE91223E3E70EA36F
:104E1000D3E90023FBF7DCFDA1E700230A93199BEC
:104E2000159A1360FFF771BA652A3FF463AB452A00
:104E30003FF460AB0123FFF795BB00BFAFF30080E9
:104E40000000C0FFFFFFDF419535A094FFFFCF3F7B
:104E50000A4601460248034B0068FFF711BA00BF3B
:104E6000180000208000002038B50446084611468E
:104E70000022054D2A601A4602F088FE431C02D12A
:104E80002B6803B1236038BDF812002038B5002329
:104E9000054D044608462B6002F032FE431C02D149
:104EA0002B6803B1236038BDF812002003692DE997
:104EB000F043B3EB611F00F114044FEA611246DDC9
:104EC00011F01F0104EB830604EB82050CD1294687
:104ED00000F11007B14235D39B1A9B00EA1E96429F
:104EE00038BF0023234415E0A14654F82270C1F1D5
:104EF0002008CF4005F1040E7645F44616D89A1ADC
:104F00009200043A0135AE4238BF0022A318A750E0
:104F100007B10433A342A3EB040208BF00234FEA06
:104F2000A202026108BF4361BDE8F083DCF800C063
:104F30000CFA08FC4CEA070749F8047B5EF8047B8E
:104F4000CF40D9E751F804CB47F804CFC2E7234656
:104F5000E0E7A0F13003092B02D82038C0B2704737
:104F6000A0F16103052B01D84738F7E7A0F1410311
:104F7000052B01D82738F1E7002070472DE9F04FC5
:104F80008BB00593B24B02901B688B461846904637
:104F90000393FBF7E7F88246039BDBF8002003440A
:104FA00013F8013C0693931CC2F1FF2202F57F0225
:104FB000FE32D1181F4613F8010B01913028F8D0AA
:104FC000FFF7C7FF044600283AD1524638460399F6
:104FD000FFF720F90546002866D117F80A0007EB0D
:104FE0000A06FFF7B6FF002860D0334618781F4640
:104FF000302803F10103F9D0FFF7ABFF0123B0FA2A
:1050000080F43546640901933A46164630780132F9
:10501000FFF79FFF0028F8D1524630460399FFF76B
:10502000F9F880B94DB906EB0A052A4616463078DC
:105030000132FFF78EFF0028F8D1AD1BAD0004E070
:1050400000242546E0E7002DF7D1337803F0DF0395
:10505000502B39D173782B2B2AD02D2B2CD04FF0FD
:105060000009711C0878FFF774FF431EDBB2182B90
:105070002AD8A0F1100211F8010FFFF76AFF431EB2
:10508000DBB2182B1BD9B9F1000F00D052421544E6
:10509000CBF80010D4B1019B002B14BF00270627CA
:1050A00038460BB0BDE8F08F3E4625460124CCE7DC
:1050B0004FF00009B11CD5E74FF00109FAE70A23C8
:1050C00003FB0202103AD6E73146E1E72146F31B23
:1050D000013B072B0ADC029800F072FA044640B943
:1050E0000246DE215B4B5C4801F07AFF01315B1028
:1050F000EFE74FF0000B00F11409CAF10103CDF8FE
:105100001090CDF804B00893B7423FD3049F019BA1
:1051100047F8043BA7EB0907BF102761184600F0CA
:1051200041FB7F01D8F800603F1AB74262DDBF1B28
:105130003946204600F0DBFE8246A8B14FF0010A56
:105140007B1E591159F8211003F01F020AFA02F2CE
:105150000A4209D0534505DD2046B91E00F0C7FEBE
:10516000002844D14FF0020A39462046FFF79EFE40
:105170003D44D8F80830AB424ADA2146029800F0A4
:105180005FFA0023149AA327136089E7731E069A17
:10519000079316F8013C934219D0BBF1200F07D1B9
:1051A000049B019A43F8042B049300239B4601932C
:1051B00016F8010CFFF7CDFE019B00F00F0000FA7E
:1051C0000BF0034301930BF1040B079B0DE0089ACE
:1051D000731E1344BB42E0D3184652460399099309
:1051E000FFF718F8099B0028D7D11E468CE74FF02F
:1051F000030AB9E709DAF71B21463A46029800F09C
:1052000037FC0446ED1B00F114094FF0000AB0E72B
:10521000D8F80400A84272DD451BAE4235DCD8F850
:105220000C30022B29D0032B2BD0012B1CD1AE42EA
:105230001AD1012E12D1D8F80430059A62271360D2
:1052400001232361C9F80030149B1C6028E700BFCC
:10525000B47E0008187E0008297E00082046711ED2
:1052600000F045FE0028E6D12146029800F0E8F95A
:105270000023149A5027136012E7159B002BF3D1DB
:10528000D9E7159B002BD6D1EEE76F1EBAF1000FC0
:1052900032D127B13946204600F029FE824601214D
:1052A0007B1159F8233007F01F0701FA07F71F4257
:1052B0004FF002072946204618BF4AF0020A761B23
:1052C000FFF7F4FDD8F80450BAF1000F48D0D8F831
:1052D0000C30022B15D0032B17D0012B09D11AF05B
:1052E000020F06D0D9F800004AEA000A1AF0010FAE
:1052F0000ED147F0100733E04FF0010ACFE7012746
:10530000E2E7159BC3F101031593159B002BF0D029
:105310004FF0000CD4F810B004F114034FEA8B0ADC
:1053200003EB8B01184653F8042BB2F1FF3F1CD05E
:1053300001320260022F04F114033DD1D8F800209D
:10534000013AB2420AD10122711153F8213006F01C
:105350001F0602FA06F61E4218BF174647F020073E
:10536000149B1C60059B1D609AE6994243F804CC8F
:10537000D8D8A3689B4517DB61680298013100F01B
:105380001FF9814618B902468421194BABE6226900
:1053900004F10C01023292000C30FEF787FE214628
:1053A000029800F04DF94C4623695A1C22610122F3
:1053B00004EB83035A61BDE722695A450BDD0121E5
:1053C0002046FFF773FDD8F808300135AB42FFF6F1
:1053D000D4AE0127C2E716F01F06FAD0534453F8A3
:1053E000040C00F0DFF9C6F12006B042E7DBF0E77D
:1053F000187E0008C2F10802920070B5C2F12006C2
:105400004368046803FA06F52C43D340046040F86F
:10541000043F8842F4D370BD30B50368013311F8FE
:10542000014B14B90360012030BD13F8012BA2F128
:105430004105192D98BF2032A242F0D00020F3E799
:105440002DE9F04F00250B6882465E1102EB8606BF
:1054500013F01F0318BF0436371FB9463C46AB464E
:1054600087B090460268019346F8045C0295517833
:10547000531C039341B3084605920491FFF769FD5D
:1054800000284FD10499059A202918D8029B9B45E2
:1054900013DD4C4506D2072D04DC2A46494620463A
:1054A000FFF7A8FF444550D90023A4F1040944F8AC
:1054B000043C1D464C46CDF808B0039AD7E729298D
:1054C00056D10232CAF80020BBF1000F50D04C4533
:1054D00006D2072D04DC2A4649462046FFF78AFFFC
:1054E000444534D92346A8F1040253F8041B9F42D3
:1054F00042F8041FF9D23B1B23F0030304330134A9
:10550000033EB44288BF04230022434443F8042BE3
:105510009F42FBD23B681BB9474527D101233B6023
:10552000052026E00135082D0BF1010B06DD444571
:10553000C3D90023012544F8043C043C226800F050
:105540000F0040EA02122260B7E70825B5E7019B89
:10555000002BDFD04FF0FF32C3F1200322FA03F318
:1055600056F8042C1A4046F8042CD3E7043FD1E740
:10557000042007B0BDE8F08F38B504460846114650
:105580000022054D2A601A4602F0E2FA431C02D1BD
:105590002B6803B1236038BDF812002082B001B936
:1055A00001A942B14BB113780B601278101E18BFDD
:1055B000012002B070471046FBE76FF00100F8E7EA
:1055C00070B5466A04460D4676B9102001F0F4FE27
:1055D0000246606220B96621174B184801F000FDB1
:1055E000C0E901660660C660666AF36883B1636AF3
:1055F000DB6853F82500B8B9012101FA05F6721DE0
:105600002046920000F094FC60B1C0E901560EE023
:1056100021220421204600F08BFC636AF060DB68E5
:10562000002BE4D1002070BD026843F82520002340
:10563000C0E90333F7E700BFC87E0008DF7E00083B
:1056400070B5466A05460C4676B9102001F0B4FEE6
:105650000246686220B98A21084B094801F0C0FC63
:10566000C0E901660660C6603CB16B6A6268DB68CF
:1056700053F82210216043F8224070BDC87E000814
:10568000DF7E00082DE9F04107460C461E4600204B
:105690000D6901F1140CDCF80030013099B202FB05
:1056A00001611E0C0B0C02FB063389B201EB0341B6
:1056B00085424FEA13464CF8041BECDC0EB3A3689A
:1056C000AB4219DC616838460131FFF779FF80464B
:1056D00028B90246B5210C4B0C4801F081FC226927
:1056E00004F10C01023292000C30FEF7DFFC21467F
:1056F0003846FFF7A5FF444604EB850301355E619C
:1057000025612046BDE8F081187E0008DF7E000894
:105710002DE9F843154609221F4608330C4693FB32
:10572000F2F30646012200219A4209DB3046FFF7D8
:1057300047FF40B90246CE21184B194801F050FCF2
:1057400052000131F0E7089B092D43614FF001033E
:10575000036116DD04F10909C8462C4418F8013B21
:1057600001460A223046303BFFF78CFFA045F5D1B9
:10577000A5F108044C442D1B6319BB4204DBBDE8B2
:10578000F88309250A34F6E714F8013B01460A229A
:105790003046303BFFF776FFEEE700BF187E00088B
:1057A000DF7E0008020C12040346CAB9030410206D
:1057B00013F07F4F04BF1B02083013F0704F04BF7B
:1057C0001B01043013F0404F04BF9B000230002B3C
:1057D00005DB13F0804F00F1010008BF2020704767
:1057E0000020E5E70368024613F007000BD0D90755
:1057F00021D4980749BF5B089B08012013605CBF58
:1058000002201360704799B209B910201B0CD9B25D
:1058100009B908301B0A190704BF1B09043099078E
:1058200004BF9B080230D90703D45B0800F10100D4
:1058300003D013607047002070472020704700009D
:1058400010B50C460121FFF7BBFE024628B94FF404
:10585000A071044B044801F0C3FB012344610361C0
:1058600010BD00BF187E0008DF7E00082DE9F04F54
:1058700091460A69D9F810300C469A42BEBF0B46D1
:105880004C4699462769D9F810A0A368616807EBD0
:105890000A06B34285B0B8BF0131FFF791FE30B9B7
:1058A000024640F25D11434B434801F099FB00F181
:1058B00014052B46002205EB8608434521D304F14D
:1058C000140303EB870709F1140303EB8A02029226
:1058D0003A1B153A22F00302043204F115018F42FB
:1058E00038BF04220192029A03939A420CD8002EE8
:1058F00003DD58F8043D002B59D0066105B0BDE822
:10590000F08F43F8042BD8E7B3F800A0BAF1000FEA
:1059100023D0A9464FF0000C04F1140E5EF8042BBE
:10592000D9F800101FFA82FB89B20AFB0B116144FF
:10593000D9F800C0120C4FEA1C4C0AFB02C202EB61
:10594000114289B241EA024177454FEA124C49F8C7
:10595000041BE3D8019A45F802C0039A0433B2F855
:105960000290B9F1000F20D0AE464FF0000A29682E
:1059700004F1140CBCF800B0BEF8022089B209FB97
:105980000B22924441EA0A414EF8041B5CF8042BB6
:10599000BEF80010120C09FB0211674501EB1A4119
:1059A0004FEA114AE6D8019AA95004359BE7013E17
:1059B0009DE700BF187E0008DF7E00082DE9F84350
:1059C000154612F0030206460F4607D0254C013A51
:1059D000002354F82220FFF755FE0746AD103DD0B6
:1059E000746A7CB9102001F0E7FC0246706228B9A5
:1059F0004FF4D7711C4B1D4801F0F2FAC0E9014485
:105A00000460C460D6F82480D8F808404CB940F24D
:105A100071213046FFF714FF00230446C8F8080040
:105A200003604FF00009EB070AD53946224630469D
:105A3000FFF71CFF804639463046FFF701FE474618
:105A40006D100BD0206838B9224621463046FFF74A
:105A50000DFF2060C0F800900446E4E73846BDE83A
:105A6000F88300BF50800008C87E0008DF7E000871
:105A70002DE9F0470C46074691462369496803EB38
:105A80006218A3684FEA621A08F10106B3420BDB01
:105A90003846FFF795FD054648B9024640F2D91150
:105AA000294B2A4801F09CFA01315B00EEE7002304
:105AB00000F1140100F110021846534537DB20694C
:105AC0002AEAEA7A04F1140319F01F0901EB8A01AA
:105AD00003EB80002FD08A464FF0000CC9F1200E56
